{
  "contractName": "Casino",
  "abi": [
    {
      "constant": false,
      "inputs": [],
      "name": "generateNumberWinner",
      "outputs": [],
      "payable": false,
      "stateMutability": "nonpayable",
      "type": "function"
    },
    {
      "constant": true,
      "inputs": [
        {
          "name": "player",
          "type": "address"
        }
      ],
      "name": "checkPlayerExists",
      "outputs": [
        {
          "name": "",
          "type": "bool"
        }
      ],
      "payable": false,
      "stateMutability": "view",
      "type": "function"
    },
    {
      "constant": false,
      "inputs": [],
      "name": "kill",
      "outputs": [],
      "payable": false,
      "stateMutability": "nonpayable",
      "type": "function"
    },
    {
      "constant": false,
      "inputs": [],
      "name": "resetData",
      "outputs": [],
      "payable": false,
      "stateMutability": "nonpayable",
      "type": "function"
    },
    {
      "constant": false,
      "inputs": [
        {
          "name": "numberWinner",
          "type": "uint256"
        }
      ],
      "name": "distributePrizes",
      "outputs": [],
      "payable": false,
      "stateMutability": "nonpayable",
      "type": "function"
    },
    {
      "constant": false,
      "inputs": [
        {
          "name": "number",
          "type": "uint256"
        }
      ],
      "name": "bet",
      "outputs": [],
      "payable": true,
      "stateMutability": "payable",
      "type": "function"
    },
    {
      "constant": true,
      "inputs": [],
      "name": "minimumBet",
      "outputs": [
        {
          "name": "",
          "type": "uint256"
        }
      ],
      "payable": false,
      "stateMutability": "view",
      "type": "function"
    },
    {
      "inputs": [
        {
          "name": "_minimumBet",
          "type": "uint256"
        }
      ],
      "payable": false,
      "stateMutability": "nonpayable",
      "type": "constructor"
    },
    {
      "payable": true,
      "stateMutability": "payable",
      "type": "fallback"
    }
  ],
  "bytecode": "0x60606040526064600455341561001457600080fd5b60405160208061081c83398101604052808051906020019091905050336000806101000a81548173ffffffffffffffffffffffffffffffffffffffff021916908373ffffffffffffffffffffffffffffffffffffffff16021790555060008114151561008257806001819055505b5061078a806100926000396000f300606060405260043610610083576000357c0100000000000000000000000000000000000000000000000000000000900463ffffffff1680630a50e361146100855780634081d9161461009a57806341c0e1b5146100eb578063478c4e0e146101005780636ca3fc3b146101155780637365870b14610138578063c38a8afd14610150575b005b341561009057600080fd5b610098610179565b005b34156100a557600080fd5b6100d1600480803573ffffffffffffffffffffffffffffffffffffffff16906020019091905050610199565b604051808215151515815260200191505060405180910390f35b34156100f657600080fd5b6100fe61023d565b005b341561010b57600080fd5b6101136102ce565b005b341561012057600080fd5b61013660048080359060200190919050506102f0565b005b61014e6004808035906020019091905050610531565b005b341561015b57600080fd5b61016361069c565b6040518082815260200191505060405180910390f35b60006001600a4381151561018957fe5b06019050610196816102f0565b50565b600080600090505b600580549050811015610232578273ffffffffffffffffffffffffffffffffffffffff166005828154811015156101d457fe5b906000526020600020900160009054906101000a900473ffffffffffffffffffffffffffffffffffffffff1673ffffffffffffffffffffffffffffffffffffffff1614156102255760019150610237565b80806001019150506101a1565b600091505b50919050565b6000809054906101000a900473ffffffffffffffffffffffffffffffffffffffff1673ffffffffffffffffffffffffffffffffffffffff163373ffffffffffffffffffffffffffffffffffffffff1614156102cc576000809054906101000a900473ffffffffffffffffffffffffffffffffffffffff1673ffffffffffffffffffffffffffffffffffffffff16ff5b565b60006005816102dd91906106a2565b5060006002819055506000600381905550565b6102f86106ce565b6000806000806000809450600093505b60058054905084101561044a5760058481548110151561032457fe5b906000526020600020900160009054906101000a900473ffffffffffffffffffffffffffffffffffffffff16925086600660008573ffffffffffffffffffffffffffffffffffffffff1673ffffffffffffffffffffffffffffffffffffffff1681526020019081526020016000206001015414156103eb578286866064811015156103ab57fe5b602002019073ffffffffffffffffffffffffffffffffffffffff16908173ffffffffffffffffffffffffffffffffffffffff168152505084806001019550505b600660008473ffffffffffffffffffffffffffffffffffffffff1673ffffffffffffffffffffffffffffffffffffffff168152602001908152602001600020600080820160009055600182016000905550508380600101945050610308565b600060058161045991906106a2565b50606460025481151561046857fe5b049150600090505b8481101561052057600073ffffffffffffffffffffffffffffffffffffffff16868260648110151561049e57fe5b602002015173ffffffffffffffffffffffffffffffffffffffff161415156105135785816064811015156104ce57fe5b602002015173ffffffffffffffffffffffffffffffffffffffff166108fc839081150290604051600060405180830381858888f19350505050151561051257600080fd5b5b8080600101915050610470565b6105286102ce565b50505050505050565b6000151561053e33610199565b151514151561054957fe5b6001811015801561055b5750600a8111155b151561056357fe5b600154341015151561057157fe5b34600660003373ffffffffffffffffffffffffffffffffffffffff1673ffffffffffffffffffffffffffffffffffffffff1681526020019081526020016000206000018190555080600660003373ffffffffffffffffffffffffffffffffffffffff1673ffffffffffffffffffffffffffffffffffffffff16815260200190815260200160002060010181905550600160036000828254019250508190555060058054806001018281610624919061070d565b9160005260206000209001600033909190916101000a81548173ffffffffffffffffffffffffffffffffffffffff021916908373ffffffffffffffffffffffffffffffffffffffff160217905550503460026000828254019250508190555060045460035410151561069957610698610179565b5b50565b60015481565b8154818355818115116106c9578183600052602060002091820191016106c89190610739565b5b505050565b610c80604051908101604052806064905b600073ffffffffffffffffffffffffffffffffffffffff168152602001906001900390816106df5790505090565b815481835581811511610734578183600052602060002091820191016107339190610739565b5b505050565b61075b91905b8082111561075757600081600090555060010161073f565b5090565b905600a165627a7a72305820c466313af885139b56157b600033cda54193f13b2b49de89ab778c8353057b2a0029",
  "source": "pragma solidity ^0.4.11; // 17\n\ncontract Casino {\n  address owner;\n\n  uint public minimumBet;\n  uint totalBet;\n  uint numberOfBets;\n  uint maxAmountOfBets = 100;\n  address[] players;\n\n  struct Player {\n    uint amountBet;\n    uint numberSelected;\n  }\n\n  mapping(address => Player) playerInfo;\n\n  function Casino(uint _minimumBet) public {\n    owner = msg.sender;\n    if (_minimumBet != 0) {\n      minimumBet = _minimumBet;\n    }\n  }\n\n  function kill() public {\n    if (msg.sender == owner) {\n      selfdestruct(owner);\n    }\n  }\n\n  // To bet for a number between 1 and 10 both inclusive\n  function bet(uint number) public payable {\n    assert(checkPlayerExists(msg.sender) == false);\n    assert(number >= 1 && number <= 10);\n    assert(msg.value >= minimumBet);\n\n    playerInfo[msg.sender].amountBet = msg.value;\n    playerInfo[msg.sender].numberSelected = number;\n    numberOfBets += 1;\n    players.push(msg.sender);\n    totalBet += msg.value;\n\n    if (numberOfBets >= maxAmountOfBets) {\n      generateNumberWinner();\n    }\n  }\n\n  function checkPlayerExists(address player) constant returns(bool) {\n    for(uint i = 0; i < players.length; i++) {\n      if (players[i] == player) {\n        return true;\n      }\n    }\n\n    return false;\n  }\n\n  function generateNumberWinner() public {\n    uint numberGenerated = block.number % 10 + 1; // This isn't secure\n    distributePrizes(numberGenerated);\n  }\n\n  function distributePrizes(uint numberWinner) public  {\n    address[100] memory winners; // Temporary in memory address with fixed size\n    uint count = 0; // The count for the array of winners\n\n    for(uint i = 0; i < players.length; i++) {\n      address playerAddress = players[i];\n      if (playerInfo[playerAddress].numberSelected == numberWinner) {\n        winners[count] = playerAddress;\n        count++;\n      }\n      delete playerInfo[playerAddress]; // Delete all the players\n    }\n\n    players.length = 0; // Delete all the players array\n\n    uint winnerEtherAmount = totalBet / winners.length; // How much each winner gets\n\n    for(uint j = 0; j < count; j++) {\n      if (winners[j] != address(0)) { // Check that the address in this fixed array is not empty\n        winners[j].transfer(winnerEtherAmount);\n      }\n    }\n    \n    resetData();\n  }\n\n  // Falback function in case someone sends ether to the contract\n  function() public payable {}\n  \n  function resetData() public {\n   players.length = 0; // Delete all the players array\n   totalBet = 0;\n   numberOfBets = 0;\n  }\n}\n",
  "sourcePath": "E:\\Projects\\ethereum-casino\\contracts\\Casino.sol",
  "compiler": {
    "name": "solc",
    "version": "0.4.18+commit.9cf6e910.Emscripten.clang"
  },
  "schemaVersion": "1.0.1",
  "updatedAt": "2018-01-16T18:43:17.688Z"
}